:020000041000EA
:1000000000B5324B212058609868022188439860DF
:10001000D860186158612E4B002199600221596106
:100020000121F02299502B49196001219960352056
:1000300000F044F80222904214D00621196600F024
:1000400034F8196E01211966002018661A6600F04E
:100050002CF8196E196E196E052000F02FF8012189
:100060000842F9D1002199601B49196000215960AB
:100070001A491B48016001219960EB211966A021F2
:10008000196600F012F800219960164914480160C1
:100090000121996001BC002800D000471248134993
:1000A000086003C880F30888084703B5996A0420EC
:1000B0000142FBD001200142F8D103BD02B5186610
:1000C0001866FFF7F2FF186E186E02BD00000240BE
:1000D000000000180000070000035F00212200005C
:1000E000F4000018222000A00001001008ED00E03C
:1000F00000000000000000000000000074B24E7A12
:1001000000200420F7010010C3010010C5010010F9
:10011000C1010010C1010010C1010010C101001097
:10012000C1010010C1010010C1010010C701001081
:10013000C1010010C1010010C9010010CB01001065
:10014000CD010010CD010010CD010010CD01001037
:10015000CD010010CD010010CD010010CD01001027
:10016000CD010010CD010010CD010010CD01001017
:10017000CD010010CD010010CD010010CD01001007
:10018000CD010010CD010010CD010010CD010010F7
:10019000CD010010CD010010CD010010CD010010E7
:1001A000CD010010CD010010CD010010CD010010D7
:1001B000CD010010CD010010CD010010CD010010C7
:1001C00000BE00BE00BE00BE00BE00BE00F04BF888
:1001D000103800BEF2EB887178AE06109CAE0610A7
:1001E0003402001090A31AE700202149086006C8D5
:1001F00081F3088810471F48006800282FD10DA4FC
:100200000ECC002902D000F012F8F9E71A491B4A77
:10021000002000E001C19142FCD1194988471949E9
:1002200088471949884700BEFDE701C901C29A42C3
:10023000FBD370479CAE0610C0000020A01B00201E
:100240007CC9061000000420000004207CC90610B0
:1002500000100420001004200000000070470B482C
:100260005AF0CAFA0047EFF30580C0B270470000A9
:1002700008ED00E0000000D0A01B0020D43E0020CC
:10028000F59105105D030010B1910510575600005F
:1002900006005250ABB3605348A8061006005250F7
:1002A000861C030258A80610060052505422A29D34
:1002B00064A8061005005250DE65F4687CC906107B
:1002C000F8B5C0460448054B10B5834203D0044B33
:1002D000002B00D0984710BDA01B0020A01B0020C1
:1002E0000000000006480749091A8B10C90FC918F9
:1002F00010B5491003D0044B002B00D0984710BD17
:10030000A01B0020A01B00200000000010B5074C1F
:100310002378002B09D1FFF7D5FF054B002B02D026
:10032000044800E000BF0123237010BD70240020AA
:100330000000000068ED0510054B10B5002B03D040
:100340000449054800E000BFFFF7CCFF10BDC046E0
:10035000000000007424002068ED051010B500F0C6
:1003600085F800F00BF8FCE77047000010B5024874
:1003700010F00AFE10BDC0460C250020F8B5254B34
:1003800018685BF077FC041C234B1F6838005BF097
:1003900071FC011C201C5BF0FEFB20495BF011FC92
:1003A000041C1F4B1D68A9685BF0F5FB061CE86880
:1003B0005BF060FC311C5BF0E9FB5BF07DFC2B69C2
:1003C0001870184B186811F047FB002819D1164B0C
:1003D0001D682B6900201856EB68C01A5BF04AFCB8
:1003E000A9685BF0EEFB011C201C00F013F9094A20
:1003F0001368013313609F420BDC130000221A6064
:1004000007E0201C5BF09AFC02000B0007480FF08D
:10041000F1FFF8BDF424002070ED0510DB0FC9409A
:1004200000250020DC2400200825002074ED0510A4
:10043000704710B50068FFF7FBFF10BD704710B59F
:100440000068FFF7FBFF10BD704710B50088FFF78D
:10045000FBFF10BD10B504000068FFF7E9FF20188E
:1004600010BD10B5FFF7F6FF10BD000030B585B028
:1004700011F0E5FD3948FFF7F4FF0400384B186030
:10048000FFF7DDFF251A2800FFF7DFFF042810D94A
:10049000281DFFF7DAFF00280DD02018FFF7C9FF4D
:1004A0000100032909D003222E480FF0A3FF05B055
:1004B00030BD0020EFE70021F3E72B4B1B78BFF3A3
:1004C0005B8FDB071DD5294B1B78BFF35B8FDB07E9
:1004D00026D52748274B186010F096FF002838D102
:1004E000244C0021206810F0F3FC234B1860206896
:1004F000002110F08FFC214B1860214B00221A6064
:10050000D5E719485CF062FA0028DCD01D4804F0F9
:1005100031F915485CF076FA1B485DF0B1FAD2E784
:1005200012485CF053FA0028D3D00D4B1968002311
:1005300002930193FA23DB000093144B114A0C48F9
:1005400010F030FC09485CF05DFA11485DF098FA53
:10055000BFE710480FF04EFFA9E7C046F0ED0510C9
:10056000042500208CED0510C4240020C0240020A8
:100570000C250020DC240020002500200825002078
:10058000F4240020BC25002069030010A01B0020DB
:100590006D030010D4ED0510074AA4231021D1509B
:1005A000064B1B885B431B04054A126853401B0C17
:1005B0001B04044A1360704700000540F824002023
:1005C0005C0005405C10054010B50421192057F06F
:1005D00081FA0C4C1023A422A3500B4A13600B4940
:1005E000042057F06BFB0121042057F057FB002338
:1005F0002365A365E365064B2366402363653F3BA4
:10060000236510BD00000540A82005409905001095
:10061000FFFF000010B50C1C0E4B1B78002B13D0F5
:10062000FE218905201C5BF0B1FA0B495BF0C9FA89
:100630005BF042FB0100094B186009480FF0DAFE3D
:100640000A2058F093F910BDFFF7BEFF014B0122BD
:100650001A70E5E7C43C00200000FF42F8240020A7
:10066000F8F6051001308000704730B500280DD035
:1006700005688D420ED100239D420DDD990044187E
:10068000646889588C4209D10133F5E748424841F2
:10069000C0B200E0002030BD0120FCE70020FAE7F6
:1006A00010B5884208D0002808D0002908D00A00D8
:1006B00002CAFFF7DAFF10BD0120FCE70020FAE7CD
:1006C0000020F8E7122827D88000154B1B589F46BA
:1006D000144870471448FCE71448FAE71448F8E750
:1006E0001448F6E71448F4E71448F2E71448F0E732
:1006F0001448EEE71448ECE71448EAE71448E8E742
:100700001448E6E71448E4E71448E2E71448E0E751
:100710001448DEE71448DCE71448DAE71448D8E761
:10072000B0F70510A8F7051014F705101CF7051011
:1007300024F705102CF7051034F705103CF70510C9
:1007400044F705104CF7051054F705105CF7051039
:1007500068F7051074F705107CF7051084F705108D
:100760008CF7051098F70510A0F70510FCF605109A
:100770000CF705100EB400B582B003AA02CA0192AC
:1007800003689B68984702B008BC03B018470CB4D4
:1007900000B583B004AA02CA019203689B68984717
:1007A00003B008BC02B01847C3B2052B03D88000C1
:1007B000074B1B589F46002008E0022006E003205C
:1007C00004E0042002E0052000E001207047C0465C
:1007D000FCF70510002803D0012803D10130704731
:1007E0000120FCE70020FAE7002803D0012803D10C
:1007F000013070470120FCE70020FAE710B500281F
:1008000006D0002906D0002A06D0002B06D010BD45
:100810005DF02EF95DF02CF95DF02AF95DF028F914
:1008200010B51300C2B2112A4BD88000294B1B58B7
:100830009F460A230B70002010BD01230B7000207F
:10084000FAE70B230B700020F6E707230B7000205C
:10085000F2E711230B700020EEE702230B7000205B
:10086000EAE710230B700020E6E703230B7000205B
:10087000E2E709230B700020DEE704230B70002061
:10088000DAE70D230B700020D6E705230B7000205C
:10089000D2E706230B700020CEE708230B70002060
:1008A000CAE70C230B700020C6E70E230B70002054
:1008B000C2E70F230B700020BEE712230B7000204D
:1008C000BAE700220A70020003491800FFF752FF3E
:1008D0000120B1E738F8051014F805100020704722
:1008E00000207047002070470020704700207047AC
:1008F000002070470020704700207047002070479C
:10090000002070470020704700207047002070478B
:10091000002070470020704700207047002070477B
:10092000002070470020704700207047002070476B
:10093000002070470020704700207047002070475B
:10094000002070470020704700207047002070474B
:10095000002070470020704700207047002070473B
:10096000002070470020704700207047002070472B
:10097000002070470020704700207047002070471B
:10098000002070470020704700207047002070470B
:1009900000207047002070470020704700207047FB
:1009A000002070470020704700207047F0B5C64611
:1009B00000B582B004000D001700019300291AD081
:1009C0000868FFF735FD0600A008B0421AD30024DE
:1009D000B44224D2A3009846B8442868FFF728FD03
:1009E000844216D22B1DA2009858FFF727FD4346DC
:1009F00018600134ECE7089A0B491800FFF7BAFEBB
:100A000001200DE0089A09490198FFF7B3FE012083
:100A100006E0074B074AAA21074858F0CDFB002003
:100A200002B004BC9046F0BD80F80510B0F8051087
:100A3000F4F8051000F90510D0F90510704710B54D
:100A40000078FFF7FBFF10BDF0B5C64600B584B0D7
:100A50000400884615001F00FFF7D0FE2B681B68B6
:100A60000422042128009847060000230360029511
:100A70000390002828D02000FFF7E1FC251A280069
:100A8000FFF7E3FC0A282BD928000A30FFF7DDFC2A
:100A9000002827D02018FFF7D2FF672828D1200090
:100AA000FFF7CDFC251A2800FFF7CFFC0C281BD937
:100AB00028000C30FFF7C9FC2418002816D02000AD
:100AC000FFF7B7FC241814E01E4B01931E4B009354
:100AD0001E4B1F4A41464046FFF759FE012421E0C4
:100AE0000020D5E70020D8E70020E5E7002400E05B
:100AF0000024002C12D025002000FFF7A0FC241AAF
:100B00002000FFF7A2FC042818D9201DFFF79DFC48
:100B1000002815D02818FFF792FC306000230393BB
:100B20003E6000240399002903D0029803685B68A3
:100B30009847200004B004BC9046F0BD0020E7E7D1
:100B40000020EAE7A8FA05105904000030FA051061
:100B500090FA0510F0B5C64600B584B0040088468A
:100B600015001F00FFF74AFE2B681B6804220421B2
:100B70002800984706000023036002950390002890
:100B800028D02000FFF75BFC251A2800FFF75DFC4A
:100B90000A282BD928000A30FFF757FC002827D055
:100BA0002018FFF74CFF4F2828D12000FFF747FC03
:100BB000251A2800FFF749FC0C281BD928000C3007
:100BC000FFF743FC2418002816D02000FFF731FC63
:100BD000241814E01E4B01931E4B00931E4B1F4A1A
:100BE00041464046FFF7D3FD012421E00020D5E730
:100BF0000020D8E70020E5E7002400E00024002CD6
:100C000012D025002000FFF71AFC241A2000FFF75D
:100C10001CFC042818D9201DFFF717FC002815D04C
:100C20002818FFF70CFC3060002303933E6000247B
:100C30000399002903D0029803685B689847200055
:100C400004B004BC9046F0BD0020E7E70020EAE7CE
:100C5000A8FA05105108000030FA051090FA0510A6
:100C6000F0B5C64600B584B00400884615001F00E4
:100C7000FFF7C4FD2B681B68042204212800984755
:100C800006000023036002950390002828D020006E
:100C9000FFF7D5FB251A2800FFF7D7FB0A282CD928
:100CA00028000A30FFF7D1FB002828D02018FFF7D2
:100CB000C6FE5E2829D12000FFF7C1FB251A2800B7
:100CC000FFF7C3FB0C281CD928000C30FFF7BDFB35
:100CD0002418002817D02000FFF7ABFB241815E0DC
:100CE0001F4B01939D23DB0000931E4B1E4A414680
:100CF0004046FFF74CFD012421E00020D4E700200E
:100D0000D7E70020E4E7002400E00024002C12D004
:100D100025002000FFF793FB241A2000FFF795FB26
:100D2000042818D9201DFFF790FB002815D028189B
:100D3000FFF785FB3060002303933E600024039996
:100D4000002903D0029803685B689847200004B02C
:100D500004BC9046F0BD0020E7E70020EAE7C0466B
:100D6000A8FA051030FA051090FA0510F0B5C6463D
:100D700000B584B00400884615001F00FFF73EFD53
:100D80002B681B68042204212800984706000023D2
:100D9000036002950390002828D02000FFF74FFB46
:100DA000251A2800FFF751FB0A282BD928000A3002
:100DB000FFF74BFB002827D02018FFF740FE132831
:100DC00028D12000FFF73BFB251A2800FFF73DFB49
:100DD0000C281BD928000C30FFF737FB24180028FB
:100DE00016D02000FFF725FB241814E01E4B0193BA
:100DF0001E4B00931E4B1F4A41464046FFF7C7FC5F
:100E0000012421E00020D5E70020D8E70020E5E715
:100E1000002400E00024002C12D025002000FFF761
:100E20000EFB241A2000FFF710FB042818D9201D00
:100E3000FFF70BFB002815D02818FFF700FB3060E8
:100E4000002303933E6000240399002903D00298F5
:100E500003685B689847200004B004BC9046F0BD6E
:100E60000020E7E70020EAE7A8FA051022080000C2
:100E700030FA051090FA0510F0B5C64600B584B0FA
:100E80000400884615001F00FFF7B8FC2B681B689C
:100E900004220421280098470600002303600295DD
:100EA0000390002828D02000FFF7C9FA251A28004F
:100EB000FFF7CBFA0A282BD928000A30FFF7C5FA2A
:100EC000002827D02018FFF7BAFD232828D12000BA
:100ED000FFF7B5FA251A2800FFF7B7FA0C281BD937
:100EE00028000C30FFF7B1FA2418002816D0200093
:100EF000FFF79FFA241814E01E4B01931E4B00933A
:100F00001E4B1F4A41464046FFF741FC012421E0A9
:100F10000020D5E70020D8E70020E5E7002400E026
:100F20000024002C12D025002000FFF788FA241A94
:100F30002000FFF78AFA042818D9201DFFF785FA48
:100F4000002815D02818FFF77AFA306000230393A1
:100F50003E6000240399002903D0029803685B686F
:100F60009847200004B004BC9046F0BD0020E7E79D
:100F70000020EAE7A8FA05103908000030FA051049
:100F800090FA0510F0B5C64600B584B00400884656
:100F900016001F00FFF732FC33681B68042208218B
:100FA00030009847050000230360436002960390D9
:100FB000002828D02000FFF742FA261A3000FFF759
:100FC00044FA0A282BD930000A30FFF73EFA0028ED
:100FD00027D02018FFF733FD5D2828D12000FFF728
:100FE0002EFA261A3000FFF730FA0C281BD93000F1
:100FF0000C30FFF72AFA2418002816D02000FFF73B
:1010000018FA241814E02A4B01932A4B00932A4B18
:101010002A4A41464046FFF7BAFB012433E000204C
:10102000D5E70020D8E70020E5E7002400E0002411
:10103000002C24D026002000FFF701FA241A2000FB
:10104000FFF703FA04282AD9201DFFF7FEF900282C
:1010500027D03018FFF7F3F928603000FFF7EFF9D9
:10106000341A2000FFF7F1F906281CD9A01DFFF75C
:10107000ECF9002819D03018FFF7E1F96860002377
:1010800003933D6000240399002903D0029803686C
:101090005B689847200004B004BC9046F0BD002077
:1010A000D5E70020D8E70020E3E70020E6E7C046C8
:1010B000A8FA05106E09000030FA051090FA051024
:1010C000F0B5C64600B584B00400884616001F007F
:1010D000FFF794FB33681B6804220821300098470F
:1010E000050000230360436002960390002828D087
:1010F0002000FFF7A4F9261A3000FFF7A6F90A2806
:101100002BD930000A30FFF7A0F9002827D020188B
:10111000FFF795FC5C2828D12000FFF790F9261AEC
:101120003000FFF792F90C281BD930000C30FFF784
:101130008CF92418002816D02000FFF77AF924181B
:1011400014E02A4B01932A4B00932A4B2A4A41462A
:101150004046FFF71CFB012433E00020D5E70020C8
:10116000D8E70020E5E7002400E00024002C24D08C
:1011700026002000FFF763F9241A2000FFF765F925
:1011800004282AD9201DFFF760F9002827D030183D
:10119000FFF755F928603000FFF751F9341A2000A5
:1011A000FFF753F906281CD9A01DFFF74EF90028B8
:1011B00019D03018FFF743F96860002303933D60AE
:1011C00000240399002903D0029803685B689847BC
:1011D000200004B004BC9046F0BD0020D5E70020FC
:1011E000D8E70020E3E70020E6E7C046A8FA0510AC
:1011F000DC05000030FA051090FA0510F0B5C6467F
:1012000000B584B00400884616001F00FFF7F6FA08
:1012100033681B680422082130009847050000232A
:101220000360436002960390002828D02000FFF757
:1012300006F9261A3000FFF708F90A282BD93000E2
:101240000A30FFF702F9002827D02018FFF7F7FB34
:10125000402828D12000FFF7F2F8261A3000FFF7C7
:10126000F4F80C281BD930000C30FFF7EEF82418E6
:10127000002816D02000FFF7DCF8241814E02A4BD1
:1012800001932A4B00932A4B2A4A41464046FFF7D6
:101290007EFA012433E00020D5E70020D8E70020C3
:1012A000E5E7002400E00024002C24D026002000E4
:1012B000FFF7C5F8241A2000FFF7C7F804282AD939
:1012C000201DFFF7C2F8002827D03018FFF7B7F825
:1012D00028603000FFF7B3F8341A2000FFF7B5F8A4
:1012E00006281CD9A01DFFF7B0F8002819D0301827
:1012F000FFF7A5F86860002303933D60002403997D
:10130000002903D0029803685B689847200004B066
:1013100004BC9046F0BD0020D5E70020D8E70020AF
:10132000E3E70020E6E7C046A8FA0510360900000A
:1013300030FA051090FA0510F0B5C64600B584B035
:101340000400884616001F00FFF758FA33681B6830
:101350000422082130009847050000230360436001
:1013600002960390002828D02000FFF768F8261A7C
:101370003000FFF76AF80A282BD930000A30FFF74F
:1013800064F8002827D02018FFF759FB172828D128
:101390002000FFF754F8261A3000FFF756F80C2803
:1013A0001BD930000C30FFF750F82418002816D055
:1013B0002000FFF73EF8241814E02A4B01932A4B33
:1013C00000932A4B2A4A41464046FFF7E0F90124A0
:1013D00033E00020D5E70020D8E70020E5E700242F
:1013E00000E00024002C24D026002000FFF727F87E
:1013F000241A2000FFF729F804282AD9201DFFF716
:1014000024F8002827D03018FFF719F8286030009A
:10141000FFF715F8341A2000FFF717F806281CD933
:10142000A01DFFF712F8002819D03018FFF707F8B1
:101430006860002303933D6000240399002903D0D2
:10144000029803685B689847200004B004BC90468B
:10145000F0BD0020D5E70020D8E70020E3E700201A
:10146000E6E7C046A8FA0510A905000030FA051005
:1014700090FA0510F0B5C64600B584B00400884661
:1014800016001F00FFF7BAF933681B680422082111
:1014900030009847050000230360436002960390E4
:1014A000002828D02000FEF7CAFF261A3000FEF7D9
:1014B000CCFF0A282BD930000A30FEF7C6FF0028DF
:1014C00027D02018FFF7BBFA3B2828D12000FEF7D1
:1014D000B6FF261A3000FEF7B8FF0C281BD93000E3
:1014E0000C30FEF7B2FF2418002816D02000FEF7BB
:1014F000A0FF241814E02A4B01932A4B00932A4B97
:101500002A4A41464046FFF742F9012433E00020D1
:10151000D5E70020D8E70020E5E7002400E000241C
:10152000002C24D026002000FEF789FF241A20007A
:10153000FEF78BFF04282AD9201DFEF786FF00281E
:1015400027D03018FEF77BFF28603000FEF777FFCA
:10155000341A2000FEF779FF06281CD9A01DFEF7DB
:1015600074FF002819D03018FEF769FF6860002367
:1015700003933D6000240399002903D00298036877
:101580005B689847200004B004BC9046F0BD002082
:10159000D5E70020D8E70020E3E70020E6E7C046D3
:1015A000A8FA0510D406000030FA051090FA0510CC
:1015B000F0B5C64600B584B00400884616001F008A
:1015C000FFF71CF933681B68042208213000984794
:1015D000050000230360436002960390002828D092
:1015E0002000FEF72CFF261A3000FEF72EFF0A28F7
:1015F0002CD930000A30FEF728FF002828D0201808
:10160000FFF71DFA6F2829D12000FEF718FF261AD0
:101610003000FEF71AFF0C281CD930000C30FEF702
:1016200014FF2418002817D02000FEF702FF24180A
:1016300015E02F4B019395231B0100932D4B2E4A50
:1016400041464046FFF7A3F8012443E00020D4E7D9
:101650000020D7E70020E4E7002400E00024002C6D
:1016600034D026002000FEF7EAFE241A2000FEF700
:10167000ECFE04281AD9201DFEF7E7FE34180028D6
:1016800016D02000FEF7D5FE2018002801D0043027
:1016900028603000FEF7D3FE341A2000FEF7D5FE96
:1016A000062807D9A01DFEF7D0FE04E00020E5E7DC
:1016B0000020EAE700203618002817D03000FEF797
:1016C000B8FE3018002801D004306860002303936E
:1016D0003D6000240399002903D0029803685B68E9
:1016E0009847200004B004BC9046F0BD0020E9E714
:1016F000A8FA051030FA051090FA0510F0B5CE469C
:10170000474680B585B00400894617001E00FFF7E4
:1017100075F83B681B6804222421380098470500AF
:10172000242200215AF062FF02970395002D2AD04F
:101730002000FEF784FE231A98461800FEF785FE67
:101740000A282CD940460A30FEF77FFE002828D010
:101750002018FFF774F9112829D12000FEF76FFE39
:10176000231A98461800FEF770FE0C281BD9404635
:101770000C30FEF76AFE2418002816D02000FEF771
:1017800058FE241814E0284B0193284B0093284B53
:10179000284A49464846FEF7FAFF012733E0002071
:1017A000D4E70020D7E70020E5E7002400E000248C
:1017B000002C24D0A0462000FEF741FE241A200071
:1017C000FEF743FE04282BD9201DFEF73EFE4346BC
:1017D0001C18002826D02000FEF72BFE2418002C11
:1017E0000DD0154B00934B462A0021002020FFF717
:1017F000DDF8071E07D12068FEF71AFE28620023D5
:101800000393356000270399002903D002980368E9
:101810005B689847380005B00CBC90469946F0BD0F
:101820000020D4E70024DAE7A8FA051067070000D3
:1018300030FA051090FA0510BCFA0510F0B5CE4646
:10184000474680B585B00400894617001E00FEF7A4
:10185000D5FF3B681B680422242138009847050007
:10186000242200215AF0C2FE02970395002D2AD0AF
:101870002000FEF7E4FD231A98461800FEF7E5FD68
:101880000A282CD940460A30FEF7DFFD002828D070
:101890002018FFF7D4F81E2829D12000FEF7CFFD2D
:1018A000231A98461800FEF7D0FD0C281BD9404695
:1018B0000C30FEF7CAFD2418002816D02000FEF7D1
:1018C000B8FD241814E02A4B01932A4B00932A4BAD
:1018D0002A4A49464846FEF75AFF01273AE00020C7
:1018E000D4E70020D7E70020E5E7002400E000244B
:1018F000002C2BD0A0462000FEF7A1FD241A2000CA
:10190000FEF7A3FD04281BD9201DFEF79EFD4346CC
:101910001C18002816D02000FEF78BFD2418002C80
:1019200012D0174B00934B462A0021002020FFF7CE
:101930003DF8071E0ED12068FEF77AFD286205E00B
:101940000020E4E70024EAE700232B62002303934E
:10195000356000270399002903D0029803685B686B
:101960009847380005B00CBC90469946F0BDC0467B
:10197000A8FA05108108000030FA051090FA051049
:10198000C4FA0510F0B5C64600B584B00400884618
:1019900016001F00FEF732FF33681B680422142173
:1019A000300098470500142200215AF01FFE0296CD
:1019B0000395002D28D02000FEF741FD261A3000A7
:1019C000FEF743FD0A282BD930000A30FEF73DFD13
:1019D000002827D02018FFF732F8202828D120002F
:1019E000FEF72DFD261A3000FEF72FFD0C281BD91F
:1019F00030000C30FEF729FD2418002816D02000F6
:101A0000FEF717FD241814E04C4B01934C4B009348
:101A10004C4B4D4A41464046FEF7B9FE01246CE06E
:101A20000020D5E70020D8E70020E5E7002400E00B
:101A30000024002C5DD026002000FEF700FD241AB3
:101A40002000FEF702FD042863D9201DFEF7FDFCEF
:101A5000002860D03018FEF7F2FC28603000FEF756
:101A6000EEFC341A2000FEF7F0FC062855D9A01D24
:101A7000FEF7EBFC002852D03018FEF7E0FC68605F
:101A80003000FEF7DCFC341A2000FEF7DEFC0828EC
:101A900047D920000830FEF7D8FC002843D0301882
:101AA000FEF7CDFCA8603000FEF7C9FC341A200018
:101AB000FEF7CBFC0A2838D920000A30FEF7C5FC17
:101AC000002834D03018FEF7BAFCE8603000FEF78A
:101AD000B6FC341A2000FEF7B8FC0C2829D92000E7
:101AE0000C30FEF7B2FC002825D03018FEF7A7FC1A
:101AF0002861002303933D6000240399002903D04B
:101B0000029803685B689847200004B004BC9046C4
:101B1000F0BD00209CE700209FE70020AAE70020FE
:101B2000ADE70020B9E70020BCE70020C8E70020AF
:101B3000CBE70020D7E70020DAE7C046A8FA051077
:101B4000BB08000030FA051090FA0510F0B5C64643
:101B500000B584B00400884615001F00FEF74EFE55
:101B60002B681B68012201212800984706000023EA
:101B7000037002950390002828D02000FEF75FFC38
:101B8000251A2800FEF761FC0A282BD928000A3004
:101B9000FEF75BFC002827D02018FEF750FF1B281B
:101BA00028D12000FEF74BFC251A2800FEF74DFC3B
:101BB0000C281BD928000C30FEF747FC24180028FD
:101BC00016D02000FEF735FC241814E01F4B0193BB
:101BD0001F4B00931F4B204A41464046FEF7D7FD5E
:101BE000012423E00020D5E70020D8E70020E5E726
:101BF000002400E00024002C14D025002000FEF773
:101C00001EFC241A2000FEF720FC04281AD9201DEF
:101C1000FEF71BFC002817D02818FEF710FF431E04
:101C200098413070002303933E60002403990029FB
:101C300003D0029803685B689847200004B004BC96
:101C40009046F0BD0020E5E70020E8E7A8FA05107F
:101C50003D07000030FA051090FA0510F0B5C646B1
:101C600000B584B00400884616001F00FEF7C6FDCC
:101C700033681B68012202213000984705000023C9
:101C80000370437002960390002828D02000FEF7CE
:101C9000D6FB261A3000FEF7D8FB0A282BD93000D5
:101CA0000A30FEF7D2FB002827D02018FEF7C7FE27
:101CB000662828D12000FEF7C2FB261A3000FEF766
:101CC000C4FB0C281BD930000C30FEF7BEFB2418D7
:101CD000002816D02000FEF7ACFB241814E02C4B93
:101CE00001932C4B00932C4B2C4A41464046FEF767
:101CF0004EFD012437E00020D5E70020D8E7002082
:101D0000E5E7002400E00024002C28D02600200075
:101D1000FEF795FB241A2000FEF797FB04282ED926
:101D2000201DFEF792FB00282BD03018FEF787FE0F
:101D3000431E984128703000FEF781FB341A2000C2
:101D4000FEF783FB06281ED9A01DFEF77EFB0028A8
:101D50001BD03018FEF773FE431E984168700023B5
:101D600003933D6000240399002903D0029803687F
:101D70005B689847200004B004BC9046F0BD00208A
:101D8000D1E70020D4E70020E1E70020E4E7C046E7
:101D9000A8FA0510CD04000030FA051090FA0510DD
:101DA000F0B5C64600B584B00400884616001F0092
:101DB000FEF724FD33681B6801220221300098479A
:101DC000050000230370437002960390002828D07A
:101DD0002000FEF734FB261A3000FEF736FB0A28F7
:101DE0002BD930000A30FEF730FB002827D020180E
:101DF000FEF725FE0F2828D12000FEF720FB261A2B
:101E00003000FEF722FB0C281BD930000C30FEF707
:101E10001CFB2418002816D02000FEF70AFB24180B
:101E200014E02D4B01932D4B00932D4B2D4A414631
:101E30004046FEF7ACFC012439E00020D5E7002045
:101E4000D8E70020E5E7002400E00024002C2AD099
:101E500026002000FEF7F3FA241A2000FEF7F5FA18
:101E6000082830D920000830FEF7EFFA00282CD0DF
:101E70003018FEF7E4FD431E984128703000FEF74D
:101E8000DEFA341A2000FEF7E0FA0A281FD92000F3
:101E90000A30FEF7DAFA00281BD03018FEF7CFFD23
:101EA000431E98416870002303933D60002403990A
:101EB000002903D0029803685B689847200004B0AB
:101EC00004BC9046F0BD0020D0E70020D3E70020FE
:101ED000E1E70020E4E7C046A8FA05108C070000FF
:101EE00030FA051090FA0510F0B5C64600B584B07A
:101EF0000400884616001F00FEF780FC33681B684C
:101F0000012202213000984705000023037043702E
:101F100002960390002828D02000FEF790FA261A97
:101F20003000FEF792FA0A282BD930000A30FEF76B
:101F30008CFA002827D02018FEF781FD4A2828D1E6
:101F40002000FEF77CFA261A3000FEF77EFA0C28F5
:101F50001BD930000C30FEF778FA2418002816D070
:101F60002000FEF766FA241814E02C4B01932C4B4A
:101F700000932C4B2C4A41464046FEF708FC0124B6
:101F800037E00020D5E70020D8E70020E5E700246F
:101F900000E00024002C28D026002000FEF74FFA95
:101FA000241A2000FEF751FA04282ED9201DFEF72E
:101FB0004CFA00282BD03018FEF741FD431E984103
:101FC00028703000FEF73BFA341A2000FEF73DFA85
:101FD00006281ED9A01DFEF738FA00281BD030189D
:101FE000FEF72DFD431E98416870002303933D606A
:101FF00000240399002903D0029803685B6898477E
:10200000200004B004BC9046F0BD0020D1E70020C1
:10201000D4E70020E1E70020E4E7C046A8FA051075
:10202000A707000030FA051090FA0510704710B5A8
:10203000007840B2FFF7FAFF10BD0000F0B5C646C9
:1020400000B584B00400884615001F00FEF7D6FBDB
:102050002B681B68012201212800984706000023F5
:10206000037002950390002828D02000FEF7E7F9BE
:10207000251A2800FEF7E9F90A282BD928000A308A
:10208000FEF7E3F9002827D02018FEF7D8FC1D281A
:1020900028D12000FEF7D3F9251A2800FEF7D5F93C
:1020A0000C281BD928000C30FEF7CFF92418002883
:1020B00016D02000FEF7BDF9241814E01F4B019341
:1020C0001F4B00931F4B204A41464046FEF75FFBE3
:1020D000012423E00020D5E70020D8E70020E5E731
:1020E000002400E00024002C14D025002000FEF77E
:1020F000A6F9241A2000FEF7A8F904281AD9201DF1
:10210000FEF7A3F9002817D02818FFF790FFFEF775
:102110004BFB3070002303933E6000240399002999
:1021200003D0029803685B689847200004B004BCA1
:102130009046F0BD0020E5E70020E8E7A8FA05108A
:102140002905000030FA051090FA0510F0B5C646D2
:1021500000B584B00400884615001F00FEF74EFB52
:102160002B681B68012201212800984706000023E4
:10217000037002950390002828D02000FEF75FF935
:10218000251A2800FEF761F90A282BD928000A3001
:10219000FEF75BF9002827D02018FEF750FC4D28E9
:1021A00028D12000FEF74BF9251A2800FEF74DF93B
:1021B0000C281BD928000C30FEF747F924180028FA
:1021C00016D02000FEF735F9241814E01F4B0193B8
:1021D0001F4B00931F4B204A41464046FEF7D7FA5B
:1021E000012423E00020D5E70020D8E70020E5E720
:1021F000002400E00024002C14D025002000FEF76D
:102200001EF9241A2000FEF720F904281AD9201DEF
:10221000FEF71BF9002817D02818FFF708FFFEF774
:10222000E3FA3070002303933E60002403990029F1
:1022300003D0029803685B689847200004B004BC90
:102240009046F0BD0020E5E70020E8E7A8FA051079
:102250009306000030FA051090FA0510F0B5C64656
:1022600000B584B00400884615001F00FEF7C6FACA
:102270002B681B68012201212800984706000023D3
:10228000037002950390002828D02000FEF7D7F8AD
:10229000251A2800FEF7D9F80A282BD928000A3079
:1022A000FEF7D3F8002827D02018FEF7C8FB152822
:1022B00028D12000FEF7C3F8251A2800FEF7C5F83C
:1022C0000C281BD928000C30FEF7BFF82418002872
:1022D00016D02000FEF7ADF8241814E01F4B019330
:1022E0001F4B00931F4B204A41464046FEF74FFAD2
:1022F000012423E00020D5E70020D8E70020E5E70F
:10230000002400E00024002C14D025002000FEF75B
:1023100096F8241A2000FEF798F804281AD9201DF0
:10232000FEF793F8002817D02818FFF780FEFEF775
:102330003BFA3070002303933E6000240399002988
:1023400003D0029803685B689847200004B004BC7F
:102350009046F0BD0020E5E70020E8E7A8FA051068
:10236000AB06000030FA051090FA0510F0B5C6462D
:1023700000B584B00400884615001F00FEF73EFA41
:102380002B681B68012201212800984706000023C2
:10239000037002950390002828D02000FEF74FF824
:1023A000251A2800FEF751F80A282BD928000A30F0
:1023B000FEF74BF8002827D02018FEF740FB0C282A
:1023C00028D12000FEF73BF8251A2800FEF73DF83B
:1023D0000C281BD928000C30FEF737F824180028E9
:1023E00016D02000FEF725F8241814E01F4B0193A7
:1023F0001F4B00931F4B204A41464046FEF7C7F94A
:10240000012423E00020D5E70020D8E70020E5E7FD
:10241000002400E00024002C14D025002000FEF74A
:102420000EF8241A2000FEF710F804281AD9201DEF
:10243000FEF70BF8002817D02818FFF7F8FDFEF775
:10244000B3F93070002303933E6000240399002900
:1024500003D0029803685B689847200004B004BC6E
:102460009046F0BD0020E5E70020E8E7A8FA051057
:10247000F705000030FA051090FA0510F0B5C646D1
:1024800000B584B00400884616001F00FEF7B6F9B8
:1024900033681B6804220821300098470500002398
:1024A0000360037102960390002828D02000FDF7F6
:1024B000C6FF261A3000FDF7C8FF0A282BD93000C6
:1024C0000A30FDF7C2FF002827D02018FEF7B7FA20
:1024D0000A2828D12000FDF7B2FF261A3000FDF7A8
:1024E000B4FF0C281BD930000C30FDF7AEFF2418C8
:1024F000002816D02000FDF79CFF241814E02B4B79
:1025000001932B4B00932B4B2B4A41464046FEF741
:102510003EF9012435E00020D5E70020D8E700206F
:10252000E5E7002400E00024002C26D0260020004F
:10253000FDF785FF241A2000FDF787FF06282CD918
:10254000A01DFDF782FF002829D03018FFF76FFD8E
:10255000FEF72AF928713000FDF771FF341A2000C8
:10256000FDF773FF04281CD9201DFDF76EFF00281E
:1025700019D03018FDF763FF2860002303933D60F6
:1025800000240399002903D0029803685B689847E8
:10259000200004B004BC9046F0BD0020D3E700202A
:1025A000D6E70020E3E70020E6E7C046A8FA0510DA
:1025B0009204000030FA051090FA0510F0B5C646F6
:1025C00000B584B00400884616001F00FEF716F917
:1025D00033681B6801220221300098470500002360
:1025E0000370437002960390002828D02000FDF766
:1025F00026FF261A3000FDF728FF0A282BD93000C5
:102600000A30FDF722FF002827D02018FEF717FA1E
:102610001C2828D12000FDF712FF261A3000FDF7F4
:1026200014FF0C281BD930000C30FDF70EFF2418C6
:10263000002816D02000FDF7FCFE241814E02C4BD7
:1026400001932C4B00932C4B2C4A41464046FEF7FD
:102650009EF8012437E00020D5E70020D8E70020CD
:10266000E5E7002400E00024002C28D0260020000C
:10267000FDF7E5FE241A2000FDF7E7FE04282ED919
:10268000201DFDF7E2FE00282BD03018FFF7CFFC0D
:10269000FEF78AF828703000FDF7D1FE341A2000CA
:1026A000FDF7D3FE06281ED9A01DFDF7CEFE00289B
:1026B0001BD03018FEF7C3F9431E98416870002301
:1026C00003933D6000240399002903D00298036816
:1026D0005B689847200004B004BC9046F0BD002021
:1026E000D1E70020D4E70020E1E70120E4E7C0467D
:1026F000A8FA0510D708000030FA051090FA051066
:10270000F0B5C64600B584B00400884616001F0028
:10271000FEF774F833681B680122022130009847E5
:10272000050000230370437002960390002828D010
:102730002000FDF784FE261A3000FDF786FE0A28E9
:102740002BD930000A30FDF780FE002827D0201852
:10275000FEF775F90B2828D12000FDF770FE261A28
:102760003000FDF772FE0C281BD930000C30FDF74D
:102770006CFE2418002816D02000FDF75AFE2418FD
:1027800014E02C4B01932C4B00932C4B2C4A4146CC
:102790004046FDF7FCFF012437E00020D5E700208C
:1027A000D8E70020E5E7002400E00024002C28D032
:1027B00026002000FDF743FE241A2000FDF745FE09
:1027C00004282ED9201DFDF740FE00282BD03018FC
:1027D000FFF72DFCFDF7E8FF28703000FDF72FFE16
:1027E000341A2000FDF731FE06281ED9A01DFDF782
:1027F0002CFE00281BD03018FEF721F9431E98410B
:102800006870002303933D6000240399002903D0DE
:10281000029803685B689847200004B004BC9046A7
:10282000F0BD0020D1E70020D4E70020E1E701203F
:10283000E4E7C046A8FA0510D203000030FA0510FC
:1028400090FA0510F0B5C64600B584B0040088467D
:1028500016001F00FDF7D2FF33681B6804220C210D
:1028600030009847050000230370436083600296A0
:102870000390002828D02000FDF7E1FD261A300043
:10288000FDF7E3FD0A282BD930000A30FDF7DDFD06
:10289000002827D02018FEF7D2F8312828D12000B0
:1028A000FDF7CDFD261A3000FDF7CFFD0C281BD912
:1028B00030000C30FDF7C9FD2418002816D0200088
:1028C000FDF7B7FD241814E0364B0193364B009307
:1028D000364B374A41464046FDF759FF012448E050
:1028E0000020D5E70020D8E70020E5E7002400E03D
:1028F0000024002C39D026002000FDF7A0FD241A6A
:102900002000FDF7A2FD04283FD9201DFDF79DFD05
:1029100000283CD03018FFF78AFBFDF75BFF2870DA
:102920003000FDF78CFD341A2000FDF78EFD0628DF
:102930002FD9A01DFDF789FD00282CD03018FDF7F8
:102940007EFD68603000FDF77AFD341A2000FDF747
:102950007CFD082821D920000830FDF776FD0028ED
:102960001DD03018FDF76BFDA860002303933D6078
:1029700000240399002903D0029803685B689847F4
:10298000200004B004BC9046F0BD0020C0E7002049
:10299000C3E70020D0E70020D3E70020DFE70020D6
:1029A000E2E7C046A8FA05101E09000030FA05103B
:1029B00090FA0510F0B5C64600B584B0040088460C
:1029C00016001F00FDF71AFF33681B680422082158
:1029D000300098470500002303600371437102969D
:1029E0000390002828D02000FDF729FD261A30008A
:1029F000FDF72BFD0A282BD930000A30FDF725FD05
:102A0000002827D02018FEF71AF8062828D1200021
:102A1000FDF715FD261A3000FDF717FD0C281BD910
:102A200030000C30FDF711FD2418002816D02000CE
:102A3000FDF7FFFC241814E0374B0193374B00934C
:102A4000374B384A41464046FDF7A1FE01244AE093
:102A50000020D5E70020D8E70020E5E7002400E0CB
:102A60000024002C3BD026002000FDF7E8FC241AAF
:102A70002000FDF7EAFC042841D9201DFDF7E5FC04
:102A800000283ED03018FDF7DAFC28603000FDF752
:102A9000D6FC341A2000FDF7D8FC062833D9A01D37
:102AA000FDF7D3FC002830D03018FFF7C0FAFDF74F
:102AB0007BFE28713000FDF7C2FC341A2000FDF7C0
:102AC000C4FC082823D920000830FDF7BEFC0028EC
:102AD0001FD03018FDF7B3FF431E984168710023E3
:102AE00003933D6000240399002903D002980368F2
:102AF0005B689847200004B004BC9046F0BD0020FD
:102B0000BEE70020C1E70020CCE70020CFE700208F
:102B1000DDE70020E0E7C046A8FA0510F108000054
:102B200030FA051090FA0510F0B587B00400039153
:102B300016001D0013681B68012201213000984710
:102B40000700002303700496059000280DD0200094
:102B5000FDF775FC261A3000FDF777FC0A2810D91E
:102B600030000A30FDF771FC0CE02E4B01932E4B28
:102B700000932E4B2E4A03990800FDF708FE01240E
:102B800041E00020002803D02018FDF758FF00E0A6
:102B90000020372818D12000FDF751FC261A3000FC
:102BA000FDF753FC0C2804D930000C30FDF74DFC28
:102BB00000E000202418002804D02000FDF739FC94
:102BC000241802E0002400E00024002C17D0260086
:102BD0002000FDF734FC241A2000FDF736FC042801
:102BE0001BD9201DFDF731FC002818D03018FFF745
:102BF0001EFA039A3900FDF713FE041E03D10023C9
:102C000005932F6000240599002903D004980368D8
:102C10005B689847200007B0F0BD0020E4E7002083
:102C2000E7E7C046A8FA0510D607000030FA0510FD
:102C300090FA0510F0B5C64600B584B00400884689
:102C400016001F00FDF7DAFD33681B680122012121
:102C50003000984705000023037002960390002877
:102C60000DD02000FDF7EBFB261A3000FDF7EDFB41
:102C70000A2810D930000A30FDF7E7FB0CE02F4B93
:102C800001932F4B00932F4B2F4A41464046FDF7AF
:102C90007EFD012441E00020002803D02018FDF72C
:102CA000CEFE00E00020392818D12000FDF7C7FB38
:102CB000261A3000FDF7C9FB0C2804D930000C306F
:102CC000FDF7C3FB00E000202418002804D02000FA
:102CD000FDF7AFFB241802E0002400E00024002CE4
:102CE00017D026002000FDF7AAFB241A2000FDF7CC
:102CF000ACFB04281DD9201DFDF7A7FB00281AD026
:102D00003018FFF794F942462900FDF789FD041EAB
:102D100003D1002303933D6000240399002903D0CD
:102D2000029803685B689847200004B004BC904692
:102D3000F0BD0020E2E70020E5E7C046A8FA051054
:102D40000A04000030FA051090FA0510F0B5C646E6
:102D500000B584B00400884616001F00FDF74EFD44
:102D600033681B68012201213000984705000023C9
:102D700003700296039000280DD02000FDF75FFB42
:102D8000261A3000FDF761FB0A2810D930000A30FE
:102D9000FDF75BFB0CE02F4B01932F4B00932F4B68
:102DA0002F4A41464046FDF7F2FC012441E0002055
:102DB000002803D02018FDF742FE00E0002028285C
:102DC00018D12000FDF73BFB261A3000FDF73DFB34
:102DD0000C2804D930000C30FDF737FB00E0002050
:102DE0002418002804D02000FDF723FB241802E05B
:102DF000002400E00024002C17D026002000FDF75E
:102E00001EFB241A2000FDF720FB04281DD9201DDD
:102E1000FDF71BFB00281AD03018FFF708F94246CF
:102E20002900FDF7FDFC041E03D1002303933D6040
:102E300000240399002903D0029803685B6898472F
:102E4000200004B004BC9046F0BD0020E2E7002062
:102E5000E5E7C046A8FA0510F103000030FA0510B6
:102E600090FA0510F0B5C64600B584B00400884657
:102E700017001E00FDF7C2FC3B681B6801220421FD
:102E80003800984705000422002159F0AFFB029753
:102E90000395002D21D02000FDF7D1FA271A380024
:102EA000FDF7D3FA0A2824D938000A30FDF7CDFA05
:102EB000002820D02018FDF7C2FD082828D12000C6
:102EC000FDF7BDFA271A3800FDF7BFFA0C2814D910
:102ED00038000C30FDF7B9FA10E04E4B01934E4B21
:102EE00000934E4B4E4A41464046FDF750FC0124AC
:102EF00081E00020DCE70020DFE700202418002824
:102F000004D02000FDF795FA241802E0002400E028
:102F10000024002C6BD027002000FDF790FA241A23
:102F20002000FDF792FA042803D9201DFDF78DFA41
:102F300000E00020002803D03818FFF778F800E000
:102F40000020FDF731FC28703800FDF778FA3C1AB4
:102F50002000FDF77AFA082804D920000830FDF790
:102F600074FA00E00020002803D03818FDF767FD50
:102F700000E00020431E9841A8703800FDF75FFA7A
:102F80003C1A2000FDF761FA0A2804D920000A3013
:102F9000FDF75BFA00E00020002803D03818FDF7A9
:102FA0004EFD00E00020431E9841E8703800FDF718
:102FB00046FA3C1A2000FDF748FA062803D9A01D5E
:102FC000FDF743FA00E00020002803D03818FFF78F
:102FD0002EF800E00020002807D0012817D0114962
:102FE0004046FDF7C7FB012405E000236B7000237A
:102FF0000393356000240399002903D002980368E5
:103000005B689847200004B004BC9046F0BD0123E3
:103010006B70ECE7A8FA05107D05000030FA05108A
:1030200090FA0510CCFA0510F0B5C64600B584B08C
:103030000400884616001F00FDF7E0FB33681B689C
:10304000042228213000984705002822002159F049
:10305000CDFA02960395002D28D02000FDF7EFF958
:10306000261A3000FDF7F1F90A282BD930000A3072
:10307000FDF7EBF9002827D02018FDF7E0FC052824
:1030800028D12000FDF7DBF9261A3000FDF7DDF925
:103090000C281BD930000C30FDF7D7F92418002874
:1030A00016D02000FDF7C5F9241814E05A4B0193FF
:1030B0005A4B00935A4B5B4A41464046FDF767FB2B
:1030C000012485E00020D5E70020D8E70020E5E7CF
:1030D000002400E00024002C76D026002000FDF71C
:1030E000AEF9241A2000FDF7B0F9042800D87BE0DF
:1030F000201DFDF7AAF9002800D177E03018FEF76F
:1031000096FFFDF767FB28703000FDF798F9341A39
:103110002000FDF79AF906286AD9A01DFDF795F958
:10312000002867D03018FDF78AF968603000FDF795
:1031300086F9341A2000FDF788F908285CD92000A8
:103140000830FDF782F9002858D03018FDF777F9DC
:10315000A8603000FDF773F9341A2000FDF775F907
:103160000A284DD920000A30FDF76FF9002849D010
:103170003018FDF764F9E8603000FDF760F9341AA3
:103180002000FDF762F90C283ED920000C30FDF735
:103190005CF900283AD03018FDF751F92861300069
:1031A000FDF74DF9341A2000FDF74FF90E282FD9FD
:1031B00020000E30FDF749F900282BD03018FEF71B
:1031C00036FFFDF7F1FA2875002303933D600024D4
:1031D0000399002903D0029803685B689847200090
:1031E00004B004BC9046F0BD002084E7002088E7CE
:1031F000002095E7002098E70020A4E70020A7E73B
:103200000020B3E70020B6E70020C2E70020C5E7B2
:103210000020D1E70020D4E7A8FA0510FD06000041
:1032200030FA051090FA0510F0B5C64600B584B026
:103230000400884616001F00FDF7E0FA33681B689B
:10324000042218213000984705001822002159F067
:10325000CDF902960395002D28D02000FDF7EFF858
:10326000261A3000FDF7F1F80A282BD930000A3071
:10327000FDF7EBF8002827D02018FDF7E0FB012828
:1032800028D12000FDF7DBF8261A3000FDF7DDF825
:103290000C281BD930000C30FDF7D7F82418002873
:1032A00016D02000FDF7C5F8241814E05A4B0193FE
:1032B0005A4B00935A4B5B4A41464046FDF767FA2A
:1032C000012485E00020D5E70020D8E70020E5E7CD
:1032D000002400E00024002C76D026002000FDF71A
:1032E000AEF8241A2000FDF7B0F8042800D87BE0DF
:1032F000201DFDF7AAF8002800D177E03018FEF76E
:1033000096FEFDF767FA28703000FDF798F8341A3A
:103310002000FDF79AF806286AD9A01DFDF795F858
:10332000002867D03018FDF78AF868603000FDF794
:1033300086F8341A2000FDF788F808285CD92000A8
:103340000830FDF782F8002858D03018FDF777F8DC
:10335000A8603000FDF773F8341A2000FDF775F807
:103360000A284DD920000A30FDF76FF8002849D00F
:103370003018FEF75CFEFDF717FA28733000FDF7F2
:103380005EF8341A2000FDF760F80C283CD92000C4
:103390000C30FDF75AF8002838D03018FDF74FF8F8
:1033A00028613000FDF74BF8341A2000FDF74DF886
:1033B0000E282DD920000E30FDF747F8002829D01F
:1033C0003018FDF73CF86861002303933D6000244A
:1033D0000399002903D0029803685B68984720008E
:1033E00004B004BC9046F0BD002084E7002088E7CC
:1033F000002095E7002098E70020A4E70020A7E739
:103400000020B3E70020B6E70020C4E70120C7E7AB
:103410000020D3E70120D6E7A8FA0510AD0400008C
:1034200030FA051090FA0510F0B5C64600B584B024
:103430000400884616001F00FDF7E0F933681B689A
:1034400004221C213000984705001C22002159F05D
:10345000CDF802960395002D28D02000FCF7EFFF51
:10346000261A3000FCF7F1FF0A282BD930000A3069
:10347000FCF7EBFF002827D02018FDF7E0FA022820
:1034800028D12000FCF7DBFF261A3000FCF7DDFF17
:103490000C281BD930000C30FCF7D7FF241800286B
:1034A00016D02000FCF7C5FF241814E0684B0193E8
:1034B000684B0093684B694A41464046FDF767F9FF
:1034C00001249CE00020D5E70020D8E70020E5E7B4
:1034D000002400E00024002C00D18CE02600200015
:1034E000FCF7ADFF241A2000FCF7AFFF042800D83A
:1034F00091E0201DFCF7A9FF002800D18DE03018D5
:10350000FEF795FDFDF766F928703000FCF797FF90
:10351000341A2000FCF799FF062800D87FE0A01D90
:10352000FCF793FF002800D17BE03018FCF787FF01
:1035300068603000FCF783FF341A2000FCF785FF39
:10354000082800D86FE020000830FCF77EFF002834
:103550006BD03018FCF773FFA8603000FCF76FFFEA
:10356000341A2000FCF771FF0A2860D920000A30C5
:10357000FCF76BFF00285CD03018FCF760FFE860B8
:103580003000FCF75CFF341A2000FCF75EFF0C28CB
:1035900051D920000C30FCF758FF00284DD03018CE
:1035A000FEF745FDFDF700F928743000FCF747FFF2
:1035B000341A2000FCF749FF0E2840D920000E30B5
:1035C000FCF743FF00283CD03018FCF738FF686157
:1035D0003000FCF734FF341A2000FCF736FF1028C7
:1035E00031D920001030FCF730FF00282DD03018E2
:1035F000FCF725FFA861002303933D600024039995
:10360000002903D0029803685B689847200004B043
:1036100004BC9046F0BD00206EE7002072E7002059
:1036200080E7002084E7002091E7002094E7002055
:10363000A0E70020A3E70020AFE70020B2E70020CA
:10364000C0E70120C3E70020CFE70120D2E7C04652
:10365000A8FA05100205000030FA051090FA0510CE
:10366000F0B5CE46474680B585B0040089461600C1
:103670001F00FDF7C3F833681B68012202213000E8
:1036800098470500002303704370029603900028BA
:103690000ED02000FCF7D3FE231A98461800FCF742
:1036A000D4FE0A2810D940460A30FCF7CEFE0CE0C2
:1036B0003D4B01933D4B00933D4B3E4A49464846A6
:1036C000FDF765F8012462E00020002803D02018EF
:1036D000FDF7B5F900E00020252819D12000FCF7FE
:1036E000AEFE231A98461800FCF7AFFE0C2804D94A
:1036F00040460C30FCF7A9FE00E00020241800280A
:1037000004D02000FCF795FE241802E0002400E01D
:103710000024002C37D0A0462000FCF790FE241A8D
:103720002000FCF792FE04281BD9201DFCF78DFE1B
:10373000002818D04044FEF77AFC4A462900FDF7DD
:103740006FF8041E23D14046FCF779FE43461C1A4D
:103750002000FCF77AFE062807D9A01DFCF775FEAD
:1037600004E00020E4E70020E7E70020002803D081
:103770004044FEF75CFC00E00020691C4A46FDF76F
:103780004FF8041E03D1002303933D6000240399E6
:10379000002903D0029803685B689847200005B0B1
:1037A0000CBC90469946F0BDA8FA051074040000C0
:1037B00030FA051090FA0510704710B50068FFF751
:1037C000FBFF10BDF0B5C64600B584B004008846C6
:1037D00015001F00FDF712F82B681B680422042156
:1037E00028009847060000230360029503900028F4
:1037F00028D02000FCF723FE251A2800FCF725FE20
:103800000A282BD928000A30FCF71FFE002827D0F1
:103810002018FDF714F94B2828D12000FCF70FFEE3
:10382000251A2800FCF711FE0C281BD928000C30A3
:10383000FCF70BFE2418002816D02000FCF7F9FD39
:10384000241814E01E4B01931E4B00931E4B1F4A7D
:1038500041464046FCF79BFF012421E00020D5E7CC
:103860000020D8E70020E5E7002400E00024002C39
:1038700012D025002000FCF7E2FD241A2000FCF7FE
:10388000E4FD042818D9201DFCF7DFFD002815D021
:103890002818FFF792FF3060002303933E60002456
:1038A0000399002903D0029803685B6898472000B9
:1038B00004B004BC9046F0BD0020E7E70020EAE732
:1038C000A8FA05100F06000030FA051090FA05104E
:1038D000F0B5C64600B584B00400884615001F0048
:1038E000FCF78CFF2B681B680422042128009847F2
:1038F00006000023036002950390002828D02000D2
:10390000FCF79DFD251A2800FCF79FFD0A282CD9FD
:1039100028000A30FCF799FD002828D02018FDF770
:103920008EF8092829D12000FCF789FD251A2800E6
:10393000FCF78BFD0C281CD928000C30FCF785FD0A
:103940002418002817D02000FCF773FD241815E078
:103950001F4B019380231B0100931E4B1E4A4146BF
:103960004046FCF714FF012421E00020D4E70020AA
:10397000D7E70020E4E7002400E00024002C12D068
:1039800025002000FCF75BFD241A2000FCF75DFDFC
:10399000042818D9201DFCF758FD002815D0281838
:1039A000FFF70BFF3060002303933E600024039970
:1039B000002903D0029803685B689847200004B090
:1039C00004BC9046F0BD0020E7E70020EAE7C046CF
:1039D000A8FA051030FA051090FA0510F0B5C646A1
:1039E00000B584B00400884616001F00FCF706FFEF
:1039F00033681B680422102130009847050010220C
:103A0000002158F0F3FD02960395002D28D02000E8
:103A1000FCF715FD261A3000FCF717FD0A282BD9F4
:103A200030000A30FCF711FD002827D02018FDF7E0
:103A300006F8472828D12000FCF701FD261A30009F
:103A4000FCF703FD0C281BD930000C30FCF7FDFC03
:103A50002418002816D02000FCF7EBFC241814E0F2
:103A60004F4B01934F4B00934F4B504A41464046BA
:103A7000FCF78DFE012472E00020D5E70020D8E796
:103A80000020E5E7002400E00024002C63D026009D
:103A90002000FCF7D4FC241A2000FCF7D6FC0428F4
:103AA00069D9201DFCF7D1FC002866D03018FEF73C
:103AB000BEFAFCF779FE28703000FCF7C0FC341A1F
:103AC0002000FCF7C2FC062859D9A01DFCF7BDFC5C
:103AD000002856D03018FFF770FE68603000FCF701
:103AE000AEFC341A2000FCF7B0FC08284BD92000AB
:103AF0000830FCF7AAFC002847D03018FFF75DFE1D
:103B0000A8603000FCF79BFC341A2000FCF79DFCF9
:103B10000A283CD920000A30FCF797FC002838D04E
:103B20003018FCF78CFF431E984128733000FCF7D7
:103B300086FC341A2000FCF788FC0C282BD92000C6
:103B40000C30FCF782FC002827D03018FCF777FFF8
:103B5000431E98416873002303933D60002403993A
:103B6000002903D0029803685B689847200004B0DE
:103B700004BC9046F0BD002096E7002099E70020A5
:103B8000A6E70020A9E70020B5E70020B8E700205D
:103B9000C4E70020C7E70020D5E70020D8E7C046EB
:103BA000A8FA05106908000030FA051090FA05100F
:103BB000F0B5CE46474680B583B004000F000192B1
:103BC0001E00002333600EF03BFA05002000FCF7D6
:103BD00036FC231A98461800FCF737FC082804D94D
:103BE00040460830FCF731FC00E00020002804D0FB
:103BF0002018FCF724FC804601E0012398469E2D06
:103C00000CDC202D23D03B681B684246290038007D
:103C10009847306000280CD0002005E02A00234996
:103C20000198FCF7A7FD012003B00CBC9046994613
:103C3000F0BD002D09DBA8001D4B1A5843461D4955
:103C40000198FCF797FD0120EEE71B4AF6E72000FC
:103C5000FCF7F5FB231A99461800FCF7F6FB06283B
:103C600017D948460630FCF7F0FB2418002812D07C
:103C70002000FCF7DEFB2418002C0ED0211D3B6831
:103C80005B68424638009847306000280BD000201F
:103C9000CAE70020E9E70024EEE708490198FCF7AD
:103CA00069FD0120C0E70120BEE7C046F8FA051013
:103CB0009C0306104CFB0510F0F80510F0FB0510F6
:103CC000F0B583B004000D0017001E000022002391
:103CD00057F09CF8002804D000233B60336003B009
:103CE000F0BD3200200029005AF0F6FF00221D4BE3
:103CF00057F049F857F0E0F957F01EF904000D1E8F
:103D000014DC00290ED080231B069C4210D0002D0D
:103D100026DC21D033681F3302DA0023336000240D
:103D20003C60DCE780231B069842ECD959F0A0FEEA
:103D3000002DECD1EA0F002312196B411C00130077
:103D4000E10700930194520811430C00019B5D10A0
:103D5000336801333360DAE780231B069C42D9D3F2
:103D600059F086FE0000E041F8B506000F0015008E
:103D70001C000022094B57F067F8002809D02300E7
:103D80002A0030003900FFF79BFF2368002B02DB7D
:103D9000F8BD59F06DFE59F06BFEC0460000F03FD3
:103DA000F0B583B004000D0017001E0000220F4B79
:103DB00057F034F8002813D00022002320002900F7
:103DC00057F042F800280DD001AB3A00200029003E
:103DD000FFF776FF019B002B06DC336003B0F0BDDC
:103DE00059F046FE59F044FE59F042FE0000F03F03
:103DF000F0B585B0124C134D0094019556F0C3FFF9
:103E000006000F00802000060A9BD84057F034F8C7
:103E100032003B0056F0B7FF0290039122002B00C6
:103E200057F012F8002808D102AB186859680C9BAB
:103E30000B9AFFF799FF05B0F0BD6B46F5E7C0465A
:103E40000000C0FFFFFFDF4170B584B0099E0A9CEF
:103E500002940196089D0095FFF7CAFF2368802011
:103E60000006D84057F008F804000D00306857F0FD
:103E700003F802000B002000290056F066FF0C9B9F
:103E80000B9AFFF78DFF04B070BDF0B5C64600B5C4
:103E900003000C00012098400138D21A20235B4215
:103EA000D3182BD401259D4001239340984656F00A
:103EB000E3FF06000F004046290057F025F80200F6
:103EC0000B003000390056F05EFF06000F00202383
:103ED0005B42E31817D4012199400120A04057F01C
:103EE00013F802000B003000390056F02EFF57F097
:103EF00031F956F0D9FF04BC9046F0BD20239B1A3F
:103F00000125DD40D0E720231B1B0121D940E4E738
:103F100070B50E0057F05EFF0D4957F052FE041CBD
:103F200058F0C0F8051C011C201C57F02AFE041C88
:103F3000281C57F0C1FE306060004008012405498C
:103F400057F078FE002800D10024E0B270BDC046D2
:103F50003BAAB83F6F12833AF0B587B005000C005A
:103F6000039202930C9B9E68DF6801290ED00329FF
:103F700040D0022900D1A0E00D9B039A1A600E9B4D
:103F8000029A1A600024200007B0F0BD311C002006
:103F900057F001FE58F086F8061CCF21090657F0AD
:103FA00057FE00280DD09E21C905301C57F048FE51
:103FB000002806D0301C57F07FFE3F1805970024DC
:103FC00008E06E695C236F4A0092FF336E4A6F49C6
:103FD0002800B047002CD6D1059B039A934207DCFA
:103FE00003AB1B680D9A13600E9B029A1A60CAE716
:103FF00005ABF6E7311C002057F0CDFD58F052F824
:10400000041CCF21090657F023FE00280DD09E2165
:10401000C905201C57F014FE002806D0201C57F0BC
:104020004BFE38180590002409E05C23554A0092A5
:10403000FF33554A554928006C69A0470124002CDC
:10404000A1D1039B059A93421DDB03AB1B680D9A1C
:104050001360311C4E4857F09EFD58F023F8061CA3
:10406000CF21090657F0F4FD00280ED09E21C90586
:10407000301C57F0E5FD002807D0301C57F01CFE1F
:104080003F1805970BE005ABE0E76C695C233D4A00
:104090000092FF333C4A3D492800A0470124002CF0
:1040A00000D070E7059B029A934204DB02AB1B68C9
:1040B0000E9A136067E705ABF9E7311C354857F0F6
:1040C0006AFD57F0EFFF041CCF21090657F0C0FD31
:1040D00000280DD09E21C905201C57F0B1FD0028F5
:1040E00006D0201C57F0E8FD38180590002409E0A0
:1040F0005C23244A0092FF33234A244928006C6938
:10410000A0470124002C00D03DE7039B059A934271
:104110001EDB03AB1B680D9A1360311CFE2080056B
:1041200057F039FD57F0BEFF061CCF21090657F0A6
:104130008FFD00280ED09E21C905301C57F080FD50
:10414000002807D0301C57F0B7FD3F1805970BE04B
:1041500005ABDFE76C695C230A4A0092FF330A4A29
:104160000A492800A0470124002C00D00BE7059B3A
:10417000029A934204DB02AB1B680E9A136002E7BB
:1041800005ABF9E7700606101C06061090FA05103C
:104190000000C040000080BFF0B5C64600B582B048
:1041A00080461D008868916857F00BFD041C57F08D
:1041B000C5FD06000F000021201C57F049FD002816
:1041C00010D0A86857F0BAFD02000B00300039008B
:1041D00056F0BBFD089B18605960002002B004BC7B
:1041E0009046F0BD43465C694E23044A0092FF337B
:1041F000034A04494046A0470120EFE7980606100D
:104200001C06061090FA0510F0B5C64600B584B03D
:1042100080460D0016001C000A9F886857F08EFD2E
:1042200002900391B06857F089FD02000B000298DC
:10423000039956F0A8FD02900391002C1AD0A068B3
:1042400057F07CFD02000B000298039956F06BFDBD
:1042500002904C006408B86857F070FD02000B0033
:104260000298210056F071FD0E4A0F4B56F0DCFD0E
:1042700000280BD00B9B00933B00320029004046E6
:10428000FFF78AFF04B004BC9046F0BD43465C696A
:10429000A023064A00925B00054A06494046A04713
:1042A0000120EFE77B14AE47E17A943FB406061095
:1042B0001C06061090FA051070B584B014001D009D
:1042C000137F032B0DD0092B0ED0072B17D0446979
:1042D00094230C4A0092FF330B4A0C49A04701205B
:1042E0000BE0FF23002202E07F2380225242089E3F
:1042F000029601950094FFF72FFE04B070BD044BA9
:10430000044AF4E7D80606101C06061090FA0510B9
:10431000FF7F00000080FFFFF0B5DE4657464E46A7
:104320004546E0B58DB004000591049206930E78E1
:10433000012E14D045690123039302967D4B01930E
:104340007D4B0093DB237D4A7D49A8470126300041
:104350000DB03CBC90469946A246AB46F0BD049BCE
:104360001F78012F0CD04569012303930297714BED
:104370000193744B0093DD23704A7149A847E6E727
:10438000049B5B68002B16D01A689146002A1BD04C
:1043900012689346012A5BDD059A127F092A1CD018
:1043A000072A1AD04569684B0093ED23634A674991
:1043B000A8473E00CBE74569654B0093E8235F4A79
:1043C0006249A8473E00C2E74569624B0093E92372
:1043D0005A4A5E49A8473E00B9E7049A127F092A63
:1043E0000BD0122A09D065695B4B0093EF23534A27
:1043F00056492000A8473E00A9E71E9A93450ED0D3
:10440000656903925B460293544B0193544B0093AE
:10441000F1234A4A4A492000A8473E0097E7049AF8
:10442000526907929B689B00944663445B681E9A9E
:1044300093420DD06569039302924A4B0193474B17
:104440000093F2233D4A3E492000A8473E007EE704
:10445000059B9B689A46169B9B6898464B4604337F
:10446000079300255F462E00A34623E04B4658687D
:1044700057F064FC04000D00504657F05FFC22002A
:104480002B0056F080FC04000D00404657F056FC0F
:1044900002000B002000290056F057FC0AAB09AAC5
:1044A000FFF70EFCB3001C9A0999D1501D9A0A9986
:1044B000D15001361E9B9E4205DA012FD6DDB30096
:1044C000079AD058D4E75C46059B1B7F032B09D085
:1044D000059B1B7F092B21D0032B1FD0072B1DD041
:1044E000002634E7002200230A920B930AAB0193C3
:1044F000169B0093069B049A05995846FFF784FE85
:10450000061E00D023E709AB189A0A980B99FFF70B
:10451000D7FB099B5B42199A1360D9E7179B19785F
:104520001B9B00931A9B169A2000FFF7C5FE0600FE
:104530000DE7C046FC060610180706101C060610FC
:10454000E0060610340706108007061090FA0510E2
:104550005007061064070610BC070610F80706107F
:10456000080806102C08061010B540694969FCF7C8
:1045700097F8431E9841C0B210BD0000112815D80D
:1045800080000C4B1B589F46012012E0042010E0D5
:1045900004200EE004200CE008200AE0082008E0D7
:1045A000082006E0082004E0102002E0002000E0DF
:1045B000022070476C08061000230360436083608C
:1045C00070470023036043608360704700230360EB
:1045D0004360836070470120704710B503681B6A11
:1045E000984710BD10B503685B6A984710BD00007E
:1045F00010B5040020290ED00022094BE358934245
:104600000BD9D3009B189B00E318181D9B698B42A4
:1046100004D00132F1E7002000E0002010BDC046C8
:10462000041200007047704710B50C4BC458802C22
:104630000AD800239C420FD9094A9A1892001258AE
:104640008A4203D00133F5E759F012FA054A94463D
:1046500063449B00185800E0002010BD08160000BD
:104660008204000002050000F8B505000E000024D9
:1046700000E001340C4BEB58A34212D9E3001B19A4
:104680009B00EB181F1D9B69202BF2D1E3001B1927
:104690009B00EB18D869310059F082FE0028E8D160
:1046A00000E000273800F8BD04120000F0B583B028
:1046B00004000F001500019320292BD003681B6A0A
:1046C000984700282ED1214BE0587F2833D8C100CD
:1046D000091889008C46A44463461A1D130046CD70
:1046E00046C346CD46C346CD46C363469F610130AF
:1046F000164BE05016496358164A9A189200175103
:10470000154A9A1892000198105101336350002005
:1047100003B0F0BD11480BF06DFE11480BF06AFEBE
:104720000120F5E70F480BF065FE39000E480BF04D
:1047300061FE0120ECE739000C480BF05BFE8021A4
:104740000B480BF057FE0120E2E7C04604120000C0
:10475000081600008204000002050000B4080610DC
:10476000E808061000090610300906105409061062
:1047700088090610F0B5C64600B58AB00400FE4EA2
:1047800000238351FD4A8350FD4B036001A825F0AF
:10479000B5F8FC4B01AA65212000FFF787FF01A8AF
:1047A00002F018FCF84B01AA00212000FFF77EFF61
:1047B00001A80FF037FFF54B01AA6A212000FFF78F
:1047C00075FF01A810F0F0F9F14B01AA3821200083
:1047D000FFF76CFF01A810F0F7F9EE4B01AA4F218B
:1047E0002000FFF763FF01A810F00EFEEA4B01AABC
:1047F00090212000FFF75AFF01A808F001FCE74BC9
:1048000001AA01212000FFF751FF01A810F0DAFEF4
:10481000E34B01AA25212000FFF748FF01A811F072
:10482000F5FAE04B01AA91212000FFF73FFF01A814
:1048300011F0A8FDDC4B01AA82212000FFF736FF12
:1048400001A811F0B3FFD94B01AA81212000FFF785
:104850002DFF01A812F0C8F9D54B01AA352120007F
:10486000FFF724FF01A812F06FFCD24B01AA6821C8
:104870002000FFF71BFF12F00DFD0500A3597F2B51
:1048800001D901F08FFD23685B6ACB49200098476E
:10489000002801D001F08DFDB74BE658721CE250A4
:1048A000F3009919890061180F1D3B0085CD85C360
:1048B00085CD85C385CD85C320238B61BE4BCB6160
:1048C00001A81CF015FFBD4B01AA02212000FFF733
:1048D000EDFE01A804F026FFB94B01AA0321200038
:1048E000FFF7E4FE01A825F02FF823681B6A6C216E
:1048F00020009847002801D001F064FD9E4BE0584D
:104900007F2801D901F067FDC100091889006118ED
:104910000D1D01AB2A00E0CBE0C2E0CBE0C2E0CB52
:10492000E0C26C258D610130934BE0509349635890
:10493000A44A9A189200A550A34A9A189200A34834
:10494000A0500133635001A81EF076FA23681B6A59
:10495000802120009847002801D001F046FD864BB9
:10496000E0587F2801D901F049FDC10009188900EC
:1049700061180D1D01AB2A00E0CBE0C2E0CBE0C224
:10498000E0CBE0C280258D6101307B4BE0507B495C
:1049900063588C4A9A189200A5508B4A9A18920034
:1049A0008B48A0500133635001A81EF0E7FE236836
:1049B0001B6A052120009847002801D001F028FD3E
:1049C0006D4BE0587F2801D901F02BFDC10009187B
:1049D000890061180D1D01AB2A00E0CBE0C2E0CBDD
:1049E000E0C2E0CBE0C205258D610130624BE050B2
:1049F00062496358734A9A189200A550724A9A18ED
:104A000092007448A0500133635001A806F044F9A5
:104A1000714B01AA04212000FFF748FE01A81FF0F6
:104A200061FB23681B6A062120009847002801D0FB
:104A300001F001FD504BE0587F2801D901F004FD41
:104A4000C1000918890061180D1D01AB2A00E0CBD7
:104A5000E0C2E0CBE0C2E0CBE0C206258D610130D0
:104A6000454BE05045496358564A9A189200A55064
:104A7000554A9A1892005948A0500133635020F0CB
:104A80001FF905003C4BE3587F2B01D901F0E6FCF0
:104A900023685B6A524920009847002801D001F042
:104AA000E4FC354BE658721CE250F300991989007A
:104AB00061180F1D3B0085CD85C385CD85C385CD90
:104AC00085C320238B61464BCB6101A822F0DCFD1E
:104AD00023681B6A2A2120009847002801D001F092
:104AE000CDFC254BE0587F2801D901F0D0FCC10056
:104AF0000918890061180D1D01AB2A00E0CBE0C246
:104B0000E0CBE0C2E0CBE0C22A258D6101301A4B38
:104B1000E0501A4963582B4A9A189200A5502A4A25
:104B20009A1892002F48A0500133635001A825F035
:104B3000B3FF23681B6A6F2120009847002801D02B
:104B400001F0AFFC0C4BE0587F2801D901F0B2FC1A
:104B5000C1000918890061180D1D01AB2A00E0CBC6
:104B6000E0C2E0CBE0C2E0CBE0C26F258D61013056
:104B7000014BE05038E0C046041200000816000067
:104B8000680A0610DD08001001270010E108001077
:104B90004D2D0010352C0010E508001029300010B4
:104BA000E9080010ED080010F1080010490A001093
:104BB00061360010F50800109C0906107D240010D5
:104BC000293200108204000002050000F9080010DC
:104BD0005D1C0010610C001029340010FD0800104D
:104BE000400A06103D200010FC496358FC4A9A1800
:104BF0009200A550FB4A9A189200FB48A05001333E
:104C0000635001A812F03EFD23681B6A4721200073
:104C10009847002801D001F057FCF44BE0587F285A
:104C200001D901F08FFCC1000918890061180D1D20
:104C300001AB2A00E0CBE0C2E0CBE0C2E0CBE0C2B7
:104C400047258D610130E94BE050E4496358E44A5F
:104C50009A189200A550E34A9A189200E448A0508E
:104C60000133635025F0F8FF051E28D025F0F6FF2C
:104C70000600DE4BE3587F2B01D901F06DFC236861
:104C80005B6A010020009847002801D001F06BFC0E
:104C9000D64BE058421CE250C300191889008846E0
:104CA000A04443461F1D3B0086CD86C386CD86C3E8
:104CB00086CD86C32023424693614246D66101A831
:104CC00026F0D6FA23681B6A2F2120009847002877
:104CD00001D001F051FCC54BE0587F2801D901F00B
:104CE00054FCC1000918890061180D1D01AB2A0090
:104CF000E0CBE0C2E0CBE0C2E0CBE0C22F258D618B
:104D00000130BA4BE050B5496358B54A9A18920041
:104D1000A550B44A9A189200B648A0500133635087
:104D200001A826F053F923681B6A46212000984702
:104D3000002801D001F033FCAC4BE0587F2801D9AA
:104D400001F036FCC1000918890061180D1D01AB86
:104D50002A00E0CBE0C2E0CBE0C2E0CBE0C24625D7
:104D60008D610130A14BE0509C4963589C4A9A18D0
:104D70009200A5509B4A9A1892009F48A050013378
:104D8000635001A826F094FC23681B6A5E21200072
:104D90009847002801D001F015FC944BE0587F287B
:104DA00001D901F018FCC1000918890061180D1D16
:104DB00001AB2A00E0CBE0C2E0CBE0C2E0CBE0C236
:104DC0005E258D610130894BE05084496358844AE7
:104DD0009A189200A550834A9A1892008748A050CA
:104DE0000133635001A826F03FFD23681B6A0821A8
:104DF00020009847002801D001F0F7FB7B4BE058DA
:104E00007F2801D901F0FAFBC10009188900611857
:104E10000D1D01AB2A00E0CBE0C2E0CBE0C2E0CB4D
:104E2000E0C208258D610130704BE0506B4963583A
:104E30006B4A9A189200A5506A4A9A1892007048D4
:104E4000A0500133635001A826F088FE23681B6A36
:104E50005A2120009847002801D001F0D9FB634B6C
:104E6000E0587F2801D901F0DCFBC1000918890056
:104E700061180D1D01AB2A00E0CBE0C2E0CBE0C21F
:104E8000E0CBE0C25A258D610130584BE0505349C8
:104E90006358534A9A189200A550524A9A189200A1
:104EA0005848A0500133635001A827F0A9F923689E
:104EB0001B6A5F2120009847002801D001F0BBFB4E
:104EC0004A4BE0587F2801D901F0BEFBC100091808
:104ED000890061180D1D01AB2A00E0CBE0C2E0CBD8
:104EE000E0C2E0CBE0C25F258D6101303F4BE05076
:104EF0003A4963583A4A9A189200A550394A9A1882
:104F000092004148A0500133635001A806F08EFE84
:104F10003E4B01AA09212000FFF7C8FB01A827F09A
:104F20007BFD23681B6A242120009847002801D0BC
:104F300001F094FB2D4BE0587F2801D901F097FB3D
:104F4000C1000918890061180D1D01AB2A00E0CBD2
:104F5000E0C2E0CBE0C2E0CBE0C224258D610130AD
:104F6000224BE0501D4963581D4A9A189200A550E3
:104F70001C4A9A1892002648A0500133635001A899
:104F800028F030F823681B6A6B212000984700281E
:104F900001D001F076FB154BE0587F2801D901F0D4
:104FA00079FBC1000918890061180D1D01AB2A00A9
:104FB000E0CBE0C2E0CBE0C2E0CBE0C26B258D618C
:104FC00001300A4BE05005496358054A9A1892008F
:104FD000A550044A9A1892001CE0C046081600002A
:104FE0008204000002050000010900100412000004
:104FF00005090010090900100D0900101109001021
:1050000015090010190900101D090010652E001067
:1050100039130010F748A0500133635001A812F073
:1050200059FB23681B6A3D2120009847002801D0C6
:1050300001F03AFBF04BE0587F2801D901F03DFB2D
:10504000C1000918890061180D1D01AB2A00E0CBD1
:10505000E0C2E0CBE0C2E0CBE0C23D258D61013093
:10506000E54BE050E5496358E54A9A189200A5508F
:10507000E44A9A189200E448A0500133635001A812
:1050800012F03CFB23681B6A3E2120009847002851
:1050900001D001F01CFBD84BE0587F2801D901F06A
:1050A0001FFBC1000918890061180D1D01AB2A0002
:1050B000E0CBE0C2E0CBE0C2E0CBE0C23E258D61B8
:1050C0000130CD4BE050CD496358CD4A9A1892003B
:1050D000A550CC4A9A189200CC48A0500133635096
:1050E00001A828F0E5F823681B6A7521200098477D
:1050F000002801D001F0FEFABF4BE0587F2801D90B
:1051000001F001FBC1000918890061180D1D01ABF8
:105110002A00E0CBE0C2E0CBE0C2E0CBE0C27525E4
:105120008D610130B44BE050B4496358B44A9A18C9
:105130009200A550B34A9A189200B548A050013386
:10514000635001A828F0C2FD23681B6A7621200065
:105150009847002801D001F0E0FAA74BE0587F28DB
:1051600001D901F0E3FAC1000918890061180D1D89
:1051700001AB2A00E0CBE0C2E0CBE0C2E0CBE0C272
:1051800076258D6101309C4BE0509C4963589C4AC8
:105190009A189200A5509B4A9A1892009D48A050D8
:1051A0000133635001A829F0E9F823681B6A0B2139
:1051B00020009847002801D001F0C2FA8E4BE05839
:1051C0007F2801D901F0C5FAC100091889006118CA
:1051D0000D1D01AB2A00E0CBE0C2E0CBE0C2E0CB8A
:1051E000E0C20B258D610130834BE0508349635849
:1051F000834A9A189200A550824A9A1892008648CB
:10520000A0500133635001A829F004FF23681B6AF2
:105210000C2120009847002801D001F0A4FA764B19
:10522000E0587F2801D901F0A7FAC10009188900C8
:1052300061180D1D01AB2A00E0CBE0C2E0CBE0C25B
:10524000E0CBE0C20C258D6101306B4BE0506B4927
:1052500063586B4A9A189200A5506A4A9A189200AD
:105260006E48A0500133635001A829F047FF23681E
:105270001B6A622120009847002801D001F086FABD
:105280005D4BE0587F2801D901F089FAC100091867
:10529000890061180D1D01AB2A00E0CBE0C2E0CB14
:1052A000E0C2E0CBE0C262258D610130524BE0509C
:1052B00052496358524A9A189200A550514A9A1876
:1052C00092005748A0500133635001A812F02AFA07
:1052D00023681B6A3A2120009847002801D001F07A
:1052E00068FA454BE0587F2801D901F06BFAC100FC
:1052F0000918890061180D1D01AB2A00E0CBE0C23E
:10530000E0CBE0C2E0CBE0C23A258D6101303A4B00
:10531000E0503A4963583A4A9A189200A550394ADF
:105320009A1892003F48A0500133635001A812F030
:105330000DFA23681B6A3F2120009847002801D0FE
:1053400001F04AFA2C4BE0587F2801D901F04DFAC0
:10535000C1000918890061180D1D01AB2A00E0CBBE
:10536000E0C2E0CBE0C2E0CBE0C23F258D6101307E
:10537000214BE05021496358214A9A189200A550C8
:10538000204A9A1892002848A0500133635001A87F
:1053900024F0ECFA23681B6A492120009847002872
:1053A00001D001F02CFA144BE0587F2801D901F00C
:1053B0002FFAC1000918890061180D1D01AB2A00E0
:1053C000E0CBE0C2E0CBE0C2E0CBE0C249258D619A
:1053D0000130094BE05009496358094A9A18920074
:1053E000A550084A9A1892001048A0500133635003
:1053F0001EE0C0462109001004120000081600003B
:10540000820400000205000025090010290900108F
:105410002D090010C11000106D230010293000105C
:10542000C537001031090010350900103909001086
:1054300001A82AF047FB23681B6A562120009847E1
:10544000002801D001F0EEF9FC4BE0587F2801D98B
:1054500001F0F1F9C1000918890061180D1D01ABB7
:105460002A00E0CBE0C2E0CBE0C2E0CBE0C25625B0
:105470008D610130F14BE050F1496358F14A9A18BF
:105480009200A550F04A9A189200F048A0500133BB
:10549000635001A824F0B4FA23681B6A5721200046
:1054A0009847002801D001F0D0F9E44BE0587F285C
:1054B00001D901F0D3F9C1000918890061180D1D47
:1054C00001AB2A00E0CBE0C2E0CBE0C2E0CBE0C21F
:1054D00057258D610130D94BE050D9496358D94ADD
:1054E0009A189200A550D84A9A189200D848A0500D
:1054F0000133635001A82AF0D5FA23681B6A5421AE
:1055000020009847002801D001F0B2F9CB4BE058B9
:105510007F2801D901F0B5F9C10009188900611887
:105520000D1D01AB2A00E0CBE0C2E0CBE0C2E0CB36
:10553000E0C254258D610130C04BE050C049635832
:10554000C04A9A189200A550BF4A9A189200C148C2
:10555000A0500133635001A82AF0E4FC23681B6AC1
:105560000E2120009847002801D001F094F9B34B98
:10557000E0587F2801D901F097F9C1000918890086
:1055800061180D1D01AB2A00E0CBE0C2E0CBE0C208
:10559000E0CBE0C20E258D610130A84BE050A84958
:1055A0006358A84A9A189200A550A74A9A189200E0
:1055B000A948A0500133635001A82BF0C9FD23680E
:1055C0001B6A322120009847002801D001F076F9AB
:1055D0009A4BE0587F2801D901F079F9C1000918E8
:1055E000890061180D1D01AB2A00E0CBE0C2E0CBC1
:1055F000E0C2E0CBE0C232258D6101308F4BE0503C
:105600008F4963588F4A9A189200A5508E4A9A186B
:1056100092009248A0500133635001A807F004FDA6
:105620008F4B01AA11212000FFF740F801A82EF0AE
:1056300051FE23681B6A372120009847002801D0BB
:1056400001F04FF97D4BE0587F2801D901F052F964
:10565000C1000918890061180D1D01AB2A00E0CBBB
:10566000E0C2E0CBE0C2E0CBE0C237258D61013083
:10567000724BE05072496358724A9A189200A550D2
:10568000714A9A1892007748A0500133635001A8DC
:1056900036F036FA23681B6A282120009847002834
:1056A00001D001F031F9654BE0587F2801D901F0B4
:1056B00034F9C1000918890061180D1D01AB2A00D9
:1056C000E0CBE0C2E0CBE0C2E0CBE0C228258D61B8
:1056D00001305A4BE0505A4963585A4A9A1892007E
:1056E000A550594A9A1892005F48A0500133635060
:1056F00001A82EF0FFFD23681B6A3921200098477E
:10570000002801D001F022F94C4BE0587F2801D944
:1057100001F025F9C1000918890061180D1D01ABC0
:105720002A00E0CBE0C2E0CBE0C2E0CBE0C239250A
:105730008D610130414BE05041496358414A9A180C
:105740009200A550404A9A1892004848A050013350
:10575000635001A830F08CFA454B01AA6421200067
:10576000FEF7A4FF01A806F0B5FE424B01AA1221E4
:105770002000FEF79BFF01A831F0F8FE23681B6AAA
:105780003B2120009847002801D001F0F2F82B4B74
:10579000E0587F2801D901F0F5F8C1000918890007
:1057A00061180D1D01AB2A00E0CBE0C2E0CBE0C2E6
:1057B000E0CBE0C23B258D610130204BE050204919
:1057C0006358204A9A189200A5501F4A9A189200CE
:1057D0002948A0500133635001A811F067FF2368E6
:1057E0001B6A482120009847002801D001F0D4F816
:1057F000124BE0587F2801D901F0D7F8C1000918F1
:10580000890061180D1D01AB2A00E0CBE0C2E0CB9E
:10581000E0C2E0CBE0C248258D610130074BE0508B
:1058200007496358074A9A189200A550064A9A18E1
:1058300092001248A0500133635021E0041200008E
:105840000816000082040000020500003D09001057
:105850004109001045090010490900104D090010C8
:1058600029300010510900104D1B0010550900107F
:105870004D2100105D220010590900105D09001033
:1058800001A831F0E9FE23681B6A532120009847E4
:10589000002801D001F093F8FC4BE0587F2801D993
:1058A00001F096F8C1000918890061180D1D01ABBF
:1058B0002A00E0CBE0C2E0CBE0C2E0CBE0C253255F
:1058C0008D610130F14BE050F1496358F14A9A186B
:1058D0009200A550F04A9A189200F048A050013367
:1058E000635001A832F07AFBED4B01AA222120007F
:1058F000FEF7DCFE01A832F085FB23681B6A3C2121
:1059000020009847002801D001F06CF8DF4BE058E8
:105910007F2801D901F06FF8C100091889006118CA
:105920000D1D01AB2A00E0CBE0C2E0CBE0C2E0CB32
:10593000E0C23C258D610130D44BE050D44963581E
:10594000D44A9A189200A550D34A9A189200D54882
:10595000A0500133635001A833F0F4FE23681B6AA2
:10596000362120009847002801D001F04EF8C74B9F
:10597000E0587F2801D901F051F8C10009188900C9
:1059800061180D1D01AB2A00E0CBE0C2E0CBE0C204
:10599000E0CBE0C236258D610130BC4BE050BC4904
:1059A0006358BC4A9A189200A550BB4A9A189200B4
:1059B000BD48A0500133635001A834F035FD236881
:1059C0001B6A722120009847002801D001F030F8AE
:1059D000AE4BE0587F2801D901F033F8C100091817
:1059E000890061180D1D01AB2A00E0CBE0C2E0CBBD
:1059F000E0C2E0CBE0C272258D610130A34BE050E4
:105A0000A3496358A34A9A189200A550A24A9A182B
:105A10009200A648A0500133635001A836F040F828
:105A2000A34B01AA8F212000FEF740FE01A836F00B
:105A30007BF823681B6A522120009847002801D078
:105A400001F009F8914BE0587F2801D901F00CF8DA
:105A5000C1000918890061180D1D01AB2A00E0CBB7
:105A6000E0C2E0CBE0C2E0CBE0C252258D61013064
:105A7000864BE05086496358864A9A189200A55092
:105A8000854A9A1892008B48A0500133635001A8B0
:105A90000EF086F823681B6A13212000984700281F
:105AA00001D000F0EBFF794BE0587F2801D900F0DE
:105AB000EEFFC1000918890061180D1D01AB2A0015
:105AC000E0CBE0C2E0CBE0C2E0CBE0C213258D61C9
:105AD00001306E4BE0506E4963586E4A9A1892003E
